:020000040000FA
:0400000001EF3FF0DD
:107D14009594120001C035F002C036F0120001C083
:107D240039F002C03AF0120001C037F002C038F056
:107D3400120001C03BF002C03CF0120001C03FF051
:107D440002C040F0120001C03DF002C03EF012003B
:107D5400300ED36E040ED26E000E9B6E120071ECC8
:107D64003FF0AAEC3EF033EC3FF052EC3FF012004F
:107D740048656C6C6F2C2048756D616E2E00000098
:107D840000000000016E9EA8CAEF3EF0CCEF3EF06A
:107D9400C5EF3EF001C0ADFF1200016EA4A8D5EFFF
:107DA4003EF0D7EF3EF0D0EF3EF001C073FF12007B
:107DB4008C94410E016EEE0EE82EFED7012EFCD7F8
:107DC40000D08C84410E016EEE0EE82EFED7012EFB
:107DD400FCD700D01200A4AAF2EF3EF0F4EF3EF07C
:107DE400EDEF3EF0000E426E71A2FBEF3EF0FDEFB0
:107DF4003EF0FFEF3EF07198718874501200740EDB
:107E0400F66E7D0EF76E000EF86E00EE21F010EEA9
:107E140014F00900F5CFEEFFE550E150FAE1426AB3
:107E2400416A000EF86E000192EF3FF001C003F0CA
:107E340002C004F020EF3FF0014A022A01C0D9FF3A
:107E440002C0DAFFDF50D8A42AEF3FF02CEF3FF056
:107E54001EEF3FF00350015C016E04500258026EA5
:107E64001200080EB86E900EAB6E240EAC6E190E96
:107E7400AF6E000EB06E000E016E000E026E91EC3D
:107E84003EF0000E016E000E026E96EC3EF0000E07
:107E9400016E000E026E8CEC3EF0000E416E12007C
:107EA4000A0E706E900E716E240E726E190E756E3F
:107EB400000E766E000E016E000E026EA0EC3EF017
:107EC400000E016E000E026EA5EC3EF0000E016E77
:107ED400000E026E9BEC3EF0000E426E1200000E8D
:107EE4008D6E000E8C6E000E896E000E8A6E000E72
:107EF4008B6E070E966E92689368BF0E946EBB0EDF
:107F0400956E3F0E0F013B6F3C0E3A6F3F0E396F7B
:107F1400070E3C6F2F0E386F000E616EF18E12004B
:107F2400B1EC3EF08AEC3EF0000E1D6E000E1C6EAD
:107F3400DAEC3EF01C4A1D2A1DBEAAEF3FF01D508C
:107F440009E1040E1C5CD8A0AAEF3FF0ACEF3FF0AF
:107F54009AEF3FF0EDEC3EF01B6E1BC020F020EEDC
:107F640021F010EE06F0130EDBCFE3FFE806FCE28F
:107F7400690E2018D8B4C1EF3FF0C3EF3FF0CCEF47
:107F84003FF0300E2018D8A4CAEF3FF0CCEF3FF0FA
:107F9400ACEF3FF0DAEC3EF0280ECFEC3EF0000EF2
:107FA4001F6E000E1E6EE2EF3FF0060E1E24D96E09
:107FB400000E1F20DA6EDF50C4EC3EF01E4A1F2A6A
:107FC400060E016E000E026E18EC3FF001501E5CAE
:107FD40002501F58D8A0F1EF3FF0F3EF3FF0D7EF76
:107FE4003FF0DAEC3EF0040E056E3E0EE82EFED7AE
:0C7FF400052EFCD7ACEF3FF000EF00F0D2
:020000040020DA
:08000000FFFFFFFFFFFFFFFF00
:020000040030CA
:0E000000FF281F3CFFBF85FF0FC00FE00F4021
:00000001FF
