:020000040000FA
:04000000AFEF3FF02F
:107F5E000001BDEF3FF0016EACA2B8EF3FF0BAEFFB
:107F6E003FF0B3EF3FF001C0ADFF1200D4EC3FF095
:107F7E00000E026E0250B2EC3FF0022A640E02189E
:107F8E00D8A4CCEF3FF0CEEF3FF0C1EF3FF0010EA3
:107F9E00026EC1EF3FF000EF00F0000E8D6E000E8E
:107FAE008C6E000E896E000E8A6E000E8B6E070EA2
:107FBE00966E9268936895680F013B693C0E3A6F16
:107FCE003F0E396F070E3C6F2F0E386F000E616E2D
:107FDE00F18E390ED36E000ED26E000E9B6E949CF7
:107FEE00948EAC8AAC98AB8EB896AC94670EAF6E8E
:027FFE0012006F
:020000040020DA
:08000000FFFFFFFFFFFFFFFF00
:020000040030CA
:0E000000FF251F3FFFBF85FF0FC00FE00F4021
:00000001FF
