:020000040000FA
:0400000026EF00F0F7
:100008003E82FACF21F0FBCF22F0F2AC0EEF00F0E7
:1000180010EF00F020EF00F09DA215EF00F017EFB1
:1000280000F020EF00F09EA21CEF00F01EEF00F0A1
:1000380020EF00F0E3EC03F022C0FBFF21C0FAFF41
:100048003E92110082EF03F0000E266E000E256E20
:100058000E0E2524D96E000E2620DA6E020EDE184A
:10006800D8A439EF00F03BEF00F0ADEF00F067EFF8
:1000780000F0898C2DEF01F08B802DEF01F08B8241
:100088002DEF01F08B842DEF01F08B862DEF01F021
:100098008C802DEF01F08C822DEF01F08C842DEFF8
:1000A80001F08C862DEF01F08B882DEF01F08B8A03
:1000B8002DEF01F08B8C2DEF01F08B8E2DEF01F0E1
:1000C8008C882DEF01F025C023F026C024F02450A1
:1000D800000AD8B472EF00F02DEF01F02350000AA7
:1000E800D8B43DEF00F0010AD8B440EF00F0030A9D
:1000F800D8B443EF00F0010AD8B446EF00F0070A7D
:10010800D8B449EF00F0010AD8B44CEF00F0030A64
:10011800D8B44FEF00F0010AD8B452EF00F00F0A3C
:10012800D8B455EF00F0010AD8B458EF00F0030A2C
:10013800D8B45BEF00F0010AD8B45EEF00F0070A0C
:10014800D8B461EF00F0010AD8B464EF00F02DEFE5
:1001580001F00E0E2524D96E000E2620DA6EDE047C
:10016800D8A4B9EF00F0BBEF00F02DEF01F0E7EFF6
:1001780000F0899C2DEF01F08B902DEF01F08B9210
:100188002DEF01F08B942DEF01F08B962DEF01F000
:100198008C902DEF01F08C922DEF01F08C942DEFC7
:1001A80001F08C962DEF01F08B982DEF01F08B9AD2
:1001B8002DEF01F08B9C2DEF01F08B9E2DEF01F0C0
:1001C8008C982DEF01F025C023F026C024F0245090
:1001D800000AD8B4F2EF00F02DEF01F02350000A26
:1001E800D8B4BDEF00F0010AD8B4C0EF00F0030A9C
:1001F800D8B4C3EF00F0010AD8B4C6EF00F0070A7C
:10020800D8B4C9EF00F0010AD8B4CCEF00F0030A63
:10021800D8B4CFEF00F0010AD8B4D2EF00F00F0A3B
:10022800D8B4D5EF00F0010AD8B4D8EF00F0030A2B
:10023800D8B4DBEF00F0010AD8B4DEEF00F0070A0B
:10024800D8B4E1EF00F0010AD8B4E4EF00F02DEFE4
:1002580001F0254A262A26BE3BEF01F0265009E187
:100268000E0E255CD8A03BEF01F03DEF01F02CEF1E
:1002780000F0120023C02DF024C02EF027502810C3
:10028800D8A449EF01F04BEF01F04DEF01F0F8EF82
:1002980001F02DC0D9FF2EC0DAFF25C0DFFF27509F
:1002A8002D24296E28502E202A6EFF0E2924D96E5F
:1002B800FF0E2A20DA6E25C0DFFF285007E1030E63
:1002C800275CD8B06AEF01F06CEF01F06EEF01F037
:1002D800F8EF01F020EE01F02D50D9262E50DA2249
:1002E80025C0DFFF20EE02F02D50D9262E50DA224D
:1002F80025C0DFFF27502D24296E28502E202A6E76
:10030800FE0E2924D96EFF0E2A20DA6E25C0DFFFE3
:1003180027502D24296E28502E202A6EFD0E2924C0
:10032800D96EFF0E2A20DA6E25C0DFFF285007E1BC
:10033800070E275CD8B0A3EF01F0A5EF01F0A7EFF7
:1003480001F0F8EF01F020EE03F02D50D9262E50E1
:10035800DA2225C0DFFF27502D24296E28502E20B1
:100368002A6EFC0E2924D96EFF0E2A20DA6E25C0CB
:10037800DFFF285007E1090E275CD8B0C6EF01F06F
:10038800C8EF01F0CAEF01F0F8EF01F02DC029F035
:100398002EC02AF0291E2A1E294A2A2A030E2914A9
:1003A8002B6E2C6A2B502D262C502E222B50275E7C
:1003B8002C50285AFC0E2716FF0E2816EFEF01F0D6
:1003C8002DC0D9FF2EC0DAFF25C0DFFF2706D8A031
:1003D80028062D4A2E2A27502810D8A4F6EF01F017
:1003E800F8EF01F0E4EF01F01200000E326E000E9B
:1003F800356E000E306E000E2F6E0E0E236E000E40
:10040800246E000E266E010E256E000E286E0E0E4E
:10041800276E3EEC01F014EF02F05FEC03F0356E4E
:100428003550D8B41AEF02F01CEF02F011EF02F0C9
:1004380035C00EF0000E346E010E336E5FEC03F023
:10044800356E0E0E3324D96E000E3420DA6E35C0A8
:10045800DFFF334A342A34BE3BEF02F0345009E15F
:100468000E0E335CD8A03BEF02F03DEF02F022EF16
:1004780002F028EC00F01200000E13EC03F01DC08F
:100488001CF01D6A1C50BDEC03F0530EE82EFED77D
:1004980000F0010E13EC03F01DC01CF01D6A1C5087
:1004A800BDEC03F0530EE82EFED700F0020E13EC5D
:1004B80003F01DC01CF01D6A1C50BDEC03F0530E68
:1004C800E82EFED700F0030E13EC03F01DC01CF05D
:1004D8001D6A1C50BDEC03F0530EE82EFED700F049
:1004E800040E13EC03F01DC01CF01D6A1C50BDEC7B
:1004F80003F0530EE82EFED700F01200000E276E10
:10050800000E266EA3EF02F08CAA8DEF02F091EF99
:1005180002F0256A252A92EF02F0256A253A254637
:100528008C502518DF0B25188C6E210E256E760E43
:10053800E82EFED7252EFCD700D0264A272A23509E
:10054800265C2750800A256E2450800A2558D8A09A
:10055800B0EF02F0B2EF02F088EF02F08C8A1200DE
:10056800000E8D6E000E8C6E000E896E000E8A6E67
:10057800000E8B6E070E966EBF0E926E9368000E7D
:10058800946E800E956E3F0E0F013B6FFC0E3A6F16
:100598003F0E396F070E3C6F2F0E386F000E616EDD
:1005A800F18E1200080E706E900E716E240E726E2F
:1005B8000C0E756E000E766E000E236E000E246E05
:1005C800D9EC03F0000E236E000E246ED4EC03F079
:1005D800000E236E000E246EDEEC03F0000E0D6E8E
:1005E80012008FEC03F0B2EC03F09CEC03F0000E69
:1005F800246E190E236E82EC02F0E7EC03F030EC67
:1006080003F0800E236E040E246ECFEC03F0F28EFE
:10061800F28CF9EC01F00DEF03F026EF00F0206EFC
:1006280020C01EF01E461E46C2501E18830B1E1800
:10063800C26EC280C282C2B224EF03F026EF03F07A
:100648001FEF03F0C4501F6E1E6AC3501E241C6E99
:10065800000E1F201D6E1200000E256E000E246E67
:10066800000EA7EC03F0244A252A25BE45EF03F027
:10067800255009E1050E245CD8A045EF03F047EFAB
:1006880003F034EF03F0120036503710D8B44FEFB0
:1006980003F051EF03F05EEF03F002D85EEF03F0D2
:1006A8000500FA6E3650FD6E3750FE6EF850FF6E3C
:1006B800FA5012001200A4AA64EF03F066EF03F0E8
:1006C8005FEF03F0000E0D6E71A26DEF03F06FEF98
:1006D80003F071EF03F07198718874501200740E72
:1006E800BB6E000EBC6E9E929D82D60E236E070EC8
:1006F800246ECFEC03F00E0EBA6E120000EE01F07D
:100708001B0EEE6AE806FDE13E903E92000EF86E82
:100718000001F5EF02F0E9EC03F0B4EC02F0C8ECEC
:1007280003F073EC03F0B2EC03F0D6EC02F0120025
:1007380095909592959495969598959A000E946EA5
:10074800929C959A1200236EA4A8ADEF03F0AFEF28
:1007580003F0A8EF03F023C073FF1200010EC26E6E
:10076800000EC16E0C0EC06E000EC36E000EC46E7D
:1007780012001C6EA4A8C3EF03F0C5EF03F0BEEF90
:1007880003F01CC073FF1200300ED36E040ED26E3D
:10079800000E9B6E120023C036F024C037F0120002
:1007A80023C03AF024C03BF0120023C03CF024C020
:1007B8003DF0120023C038F024C039F012009E9298
:1007C80048EC03F012008C8A1200D09E120012002E
:020000040020DA
:08000000FFFFFFFFFFFFFFFF00
:020000040030CA
:0E000000FF281F3CFFBF85FF0FC00FE00F4021
:00000001FF
