:020000040000FA
:040000003FEF00F0DE
:100008005F82FACFA7F0FBCFA8F0E1CFA9F0E2CF4B
:10001800AAF0D9CFABF0DACFACF0F6CFADF0F7CF8E
:10002800AEF0F8CFAFF0F5CFB0F0F2AA1EEF00F0C7
:1000380020EF00F029EF00F0F2A425EF00F027EF01
:1000480000F029EF00F028EC0AF0B0C0F5FFAFC0CF
:10005800F8FFAEC0F7FFADC0F6FFACC0DAFFABC02B
:10006800D9FFAAC0E2FFA9C0E1FFA8C0FBFFA7C053
:0A007800FAFF5F921100EBEF09F0B0
:0506000000256400006C
:1006060020C038F021C039F022C03AF023C03BF0B8
:1006160024C03CF025C03DF026C03EF027C03FF088
:100626003FBE18EF03F01BEF03F0010E1CEF03F0C3
:10063600000E366E376A36503710D8B425EF03F001
:1006460027EF03F037EF03F03F1E3E1E3D1E3C1E14
:100656003B1E3A1E391E386C000E39223A223B22C6
:100666003C223D223E223F2200016FBF3DEF03F0B8
:100676003FEF03F040EF03F070936FBF4DEF03F0D1
:100686006F5106E16E05D8B04BEF03F04DEF03F066
:1006960053EF03F0000E336E010E326E57EF03F088
:1006A6006EC032F06FC033F06CC034F06DC035F000
:1006B60036503710D8A462EF03F064EF03F06BEF07
:1006C60003F070A569EF03F06BEF03F06EEF03F034
:1006D6003406D8A03506000E416E1F0E406E000E81
:1006E600926FF2EF03F04006D8A04106730E402445
:1006F600D96E000E4120DA6E38C001F039C002F022
:100706003AC003F03BC004F03CC005F03DC006F023
:100716003EC007F03FC008F00A0E096E000E0A6ED2
:10072600000E0B6E000E0C6E000E0D6E000E0E6EA1
:10073600000E0F6E000E106ECEEC06F001C028F013
:1007460002C029F003C02AF004C02BF005C02CF02B
:1007560006C02DF007C02EF008C02FF028C013F0F9
:100766002AC014F00FEC09F01350300FDF6E32067A
:10077600D8A033063406D8A0350638C001F039C0F3
:1007860002F03AC003F03BC004F03CC005F03DC0A7
:1007960006F03EC007F03FC008F00A0E096E000ED4
:1007A6000A6E000E0B6E000E0C6E000E0D6E000E25
:1007B6000E6E000E0F6E000E106E4EEC05F001C0B0
:1007C60038F002C039F003C03AF004C03BF005C06F
:1007D6003CF006C03DF007C03EF008C03FF041BE09
:1007E600FDEF03F0415008E14004D8A0FDEF03F00F
:1007F600FFEF03F030EF04F0385039103A103B1099
:100806003C103D103E103F10D8A40CEF04F00EEF44
:1008160004F076EF03F033BE1BEF04F0335006E12D
:100826003204D8B019EF04F01BEF04F076EF03F0B2
:1008360035BE26EF04F0355008E13404D8A026EF83
:1008460004F028EF04F030EF04F0000170B32EEF4F
:1008560004F030EF04F076EF03F036503710D8A4EA
:1008660037EF04F039EF04F041EF04F0000170A512
:100876003FEF04F041EF04F05FEF04F04006D8A02C
:10088600410636503710D8A44BEF04F04DEF04F074
:1008960053EF04F0000E316E2B0E306E57EF04F05E
:1008A600000E316E2D0E306E730E4024D96E000E82
:1008B6004120DA6E30C0DFFF1EC013F01FC014F0F7
:1008C600730E4024156E000E4120166E34C017F0CC
:1008D60035C018F080EC07F013C01EF014C01FF0EE
:1008E600120044C0D9FF45C0DAFFDECFF6FFDDCFE8
:1008F600F7FF0800F550250AD8A484EF04F086EF28
:1009060004F032EF05F044C0D9FF45C0DAFFDE2A15
:10091600000EDD22000E00016D6F000E6C6F6CC0C4
:1009260070F06DC071F06E696F6944C0D9FF45C043
:10093600DAFFDECFF6FFDDCFF7FF0800F550640AD9
:10094600D8B4A8EF04F0AAEF04F0BCEF04F044C05A
:10095600D9FF45C0DAFFDECFF6FFDDCFF7FF08008F
:10096600F550690AD8A4BAEF04F0BCEF04F0FCEF26
:1009760004F044C0D9FF45C0DAFFDE2A000EDD22AE
:1009860046C0D9FF47C0DAFFDFCF48F0020EDE26A9
:10099600DFCF49F0000EDD2248C0D9FF49C0DAFF9B
:1009A600DECF4AF0DDCF4BF0000E4BBEFF0E4C6E95
:1009B6004D6E4E6E4F6E506E516E42C01EF043C06D
:1009C6001FF04AC020F04BC021F04CC022F04DC0B1
:1009D60023F04EC024F04FC025F050C026F051C081
:1009E60027F003EC03F01EC042F01FC043F04DEFAA
:1009F60005F044C0D9FF45C0DAFFDECFF6FFDDCFF4
:100A0600F7FF0800F550250AD8A40CEF05F00EEF05
:100A160005F025EF05F044C0D9FF45C0DAFFDE2A10
:100A2600000EDD22000E046E250E036E42C005F098
:100A360043C006F0E3EC07F0000E436E010E426E73
:100A46004DEF05F044C0D9FF45C0DAFFDE2A000E9F
:100A5600DD22000E436E000E426E4DEF05F044C0DF
:100A6600D9FF45C0DAFFDECFF6FFDDCFF7FF08007E
:100A7600F550036E046A42C005F043C006F0E3EC8D
:100A860007F044C0D9FF45C0DAFFDE2A000EDD229A
:100A96001FEF05F01200000E126E10BE57EF05F0A4
:100AA60055EF05F069EF05F0101E0F1E0E1E0D1E08
:100AB6000C1E0B1E0A1E096C000E0A220B220C22AB
:100AC6000D220E220F221022010E126E08BE70EFAA
:100AD60005F06EEF05F082EF05F0081E071E061EF4
:100AE600051E041E031E021E016C000E02220322B6
:100AF60004220522062207220822010E121A20EEDF
:100B060013F0070EDE6AE806FDE209500A100B1024
:100B16000C100D100E100F101010D8B495EF05F034
:100B260097EF05F0E9EF05F0010E116EA5EF05F060
:100B3600D89009360A360B360C360D360E360F3679
:100B46001036112A10AEAAEF05F0ACEF05F09BEFB8
:100B560005F0D8901336143615361636173618366D
:100B660019361A360950015C0A5002580B500358C0
:100B76000C5004580D5005580E5006580F50075883
:100B860010500858D8A0CAEF05F0CCEF05F0DDEFFD
:100B960005F00950015E0A50025A0B50035A0C50D8
:100BA600045A0D50055A0E50065A0F50075A105047
:100BB600085A1380D89010320F320E320D320C3292
:100BC6000B320A320932112EACEF05F01250D8B4AE
:100BD600EFEF05F0F1EF05F001EF06F01A1E191E12
:100BE600181E171E161E151E141E136C000E142238
:100BF600152216221722182219221A2213C001F0D2
:100C060014C002F015C003F016C004F017C005F0BA
:100C160018C006F019C007F01AC008F01200B1C0DB
:100C2600BBF0B2C0BCF00001B551B611D8A41EEF9E
:100C360006F020EF06F022EF06F0CDEF06F0BBC07F
:100C4600D9FFBCC0DAFFB3C0DFFFB551BB25B76F14
:100C5600B651BC21B86FFF0EB725D96EFF0EB8216D
:100C6600DA6EB3C0DFFFB65107E1030EB55DD8B04B
:100C76003FEF06F041EF06F043EF06F0CDEF06F04A
:100C860020EE01F0BB51D926BC51DA22B3C0DFFFFA
:100C960020EE02F0BB51D926BC51DA22B3C0DFFFE9
:100CA600B551BB25B76FB651BC21B86FFE0EB7253F
:100CB600D96EFF0EB821DA6EB3C0DFFFB551BB2582
:100CC600B76FB651BC21B86FFD0EB725D96EFF0EB2
:100CD600B821DA6EB3C0DFFFB65107E1070EB55D86
:100CE600D8B078EF06F07AEF06F07CEF06F0CDEF9D
:100CF60006F020EE03F0BB51D926BC51DA22B3C070
:100D0600DFFFB551BB25B76FB651BC21B86FFC0EDE
:100D1600B725D96EFF0EB821DA6EB3C0DFFFB65124
:100D260007E1090EB55DD8B09BEF06F09DEF06F022
:100D36009FEF06F0CDEF06F0BBC0B7F0BCC0B8F031
:100D4600B71FB81FB74BB82B030EB715B96FBA6BE1
:100D5600B951BB27BA51BC23B951B55FBA51B65B7D
:100D6600FC0EB517FF0EB617C4EF06F0BBC0D9FFD1
:100D7600BCC0DAFFB3C0DFFFB507D8A0B607BB4BD0
:100D8600BC2BB551B611D8A4CBEF06F0CDEF06F0CB
:100D9600B9EF06F01200000E126E08BED7EF06F08D
:100DA600D5EF06F0E9EF06F0081E071E061E051E23
:100DB600041E031E021E016C000E022203220422E0
:100DC6000522062207220822010E126E10BEF0EF3F
:100DD60006F0EEEF06F000EF07F0101E0F1E0E1ED7
:100DE6000D1E0C1E0B1E0A1E096C000E0A220B227B
:100DF6000C220D220E220F22102209500A100B106F
:100E06000C100D100E100F101010D8B40DEF07F0C7
:100E16000FEF07F057EF07F0010E116E1DEF07F009
:100E2600D89009360A360B360C360D360E360F3686
:100E36001036112A10AE22EF07F024EF07F013EF59
:100E460007F00950015C0A5002580B5003580C5029
:100E560004580D5005580E5006580F50075810509C
:100E66000858D8A039EF07F03BEF07F04BEF07F033
:100E76000950015E0A50025A0B50035A0C50045A8C
:100E86000D50055A0E50065A0F50075A1050085A60
:100E9600D89010320F320E320D320C320B320A322B
:100EA6000932112E24EF07F01250D8B45DEF07F087
:100EB6005FEF07F06FEF07F0081E071E061E051E00
:100EC600041E031E021E016C000E022203220422CF
:100ED600052206220722082201C001F002C002F004
:100EE60003C003F004C004F005C005F006C006F018
:100EF60007C007F008C008F01200000170A186EFD5
:100F060007F088EF07F092EF07F015C00CF016C057
:100F16000DF013C00EF014C00FF0EDEC08F018BE83
:100F260097EF07F099EF07F09FEF07F017C01CF057
:100F360018C01DF0A3EF07F0000E1D6E000E1C6E0C
:100F4600000E1B6E000E1A6EB5EF07F0000E046E53
:100F5600200E036E13C005F014C006F0E3EC07F094
:100F66001A4A1B2A1C501A5C1B50800A196E1D5007
:100F7600800A1958D8A0C2EF07F0C4EF07F0A9EF0E
:100F860007F0000170B1CAEF07F0CCEF07F0D6EF1B
:100F960007F015C00CF016C00DF013C00EF014C00B
:100FA6000FF0EDEC08F015C001F016C002F02FECC2
:100FB60009F01C500124136E1D500220146E1200FD
:100FC60005500610D8B4EAEF07F0ECEF07F0F5EF9E
:100FD60007F005500610D8A4F3EF07F0F5EF07F079
:100FE600FAEF07F0035042EC0AF02DEF08F020EE7E
:100FF60004F00550D9260650DA22DE50DE10D8B4A9
:1010060007EF08F009EF08F024EF08F020EE04F0EF
:101016000550D9260650DA2210EE02F00550E126D8
:101026000650E222DE50E65CE650800A0B6EDE5089
:10103600800A0B58D8B022EF08F024EF08F02DEF05
:1010460008F020EE02F00550D9260650DA22DE2AF4
:10105600000EDD221200000E0001C06F000EC36FED
:10106600000EBE6F000EBD6F930EB16F000EB26F15
:10107600000EB46F010EB36F000EB66F0E0EB56F95
:1010860012EC06F04BEF08F079EC09F00001C36FA3
:101096000001C351D8B452EF08F054EF08F047EFFF
:1010A60008F0C3C093F0000EC26F010EC16F79EC59
:1010B60009F00001C36F930EC125D96E000EC2213F
:1010C600DA6EC3C0DFFFC14BC22BC2BF74EF08F09C
:1010D600C25109E10E0EC15DD8A074EF08F076EF9B
:1010E60008F05AEF08F0120054C058F055C059F0F5
:1010F600000E00016B6F000E6A6F95EF08F052C08C
:1011060042F053C043F0580E446E000E456E56C072
:1011160046F057C047F074EC04F0425000016A27CD
:1011260043506B2358C0F6FF59C0F7FF0800F5502F
:101136000009D8A4A1EF08F0A3EF08F082EF08F0A9
:101146006AC052F06BC053F01200080E706E900E1B
:10115600716E240E726E0C0E756E000E766E000E9B
:101166000001B16F000EB26F38EC0AF0000E0001FC
:10117600B16F000EB26F33EC0AF0000E0001B16FD2
:10118600000EB26F3DEC0AF0000E0001726F120005
:10119600000E8D6E000E8C6E000E896E000E8A6E2D
:1011A600000E8B6E070E966EBF0E926E9368000E43
:1011B600946E800E956E3B0E0F013B6FFC0E3A6FE0
:1011C6003F0E396F070E3C6F2F0E386F000E616EA3
:1011D600F18E1200000E126E000E116EFEEF08F078
:1011E60010C003F0046A0EC005F00FC006F0E3EC71
:1011F60007F0114A122A11500C24D96E12500D20F4
:10120600DA6EDF50106E1050D8A40CEF09F00EEF16
:1012160009F0F3EF08F0120014BE1CEF09F01450A9
:1012260006E11304D8B01AEF09F01CEF09F02AEF13
:1012360009F013C015F014C016F0151E161E154A37
:10124600162A15C013F016C014F02EEF09F013C0BD
:1012560013F014C014F0120001C003F002C004F031
:1012660037EF09F0014A022A01C0D9FF02C0DAFFAE
:10127600DF50D8A441EF09F043EF09F035EF09F04C
:101286000350015C016E04500258026E1200000108
:10129600C451C511D8B452EF09F054EF09F061EF0B
:1012A60009F002D861EF09F00500FA6EC451FD6E2F
:1012B600C551FE6EF850FF6EFA5012001200DCECBB
:1012C60009F003EC0AF06E0E0001B16F130EB26F57
:1012D6002EEC0AF0F28EF28CF8EC09F047EC0AF0EC
:1012E6002EEC08F073EF09F03FEF00F0A4AA7EEFB2
:1012F60009F080EF09F079EF09F0000E0001726F36
:1013060071A288EF09F08AEF09F08CEF09F0719865
:10131600718874501200026E02C001F00146014647
:10132600C2500118830B0118C26EC280C282C2B2BB
:101336009FEF09F0A1EF09F09AEF09F0C3501200F0
:101346005C0E0001A36F000EA46F000E526E000E1D
:10135600536E5AC054F05BC055F0A30E566E000E85
:10136600576E77EC08F01200000E8EEC09F05E6EF8
:101376005E500001A56FA66B010E5A6E060E5B6EDF
:10138600A5C05CF0A6C05DF0A3EC09F01200000E4B
:10139600D76EE30ED66EE30E0001CC6FF294F28A9E
:1013A600960EB16F140EB26F2EEC0AF0D70ED56EF4
:1013B600120049EC0AF0CBEC08F021EC0AF0CAEC7A
:1013C60009F003EC0AF019EC0AF0A8EC08F0120098
:1013D60000EE60F0410EEE6AE806FDE15F905F9276
:1013E600000EF86E000162EF09F0959095929594C3
:1013F60095969598959A000E946E929C959A1200E1
:10140600010EC26E000EC16E880EC06E000EC36E57
:10141600000EC46E1200016EA4A814EF0AF016EFB7
:101426000AF00FEF0AF001C073FF1200000E0F0161
:10143600546F000E556F000E566F1200300ED36EAD
:10144600040ED26E000E9B6E1200F294CCC0D6FF34
:101456004AEC09F01200B1C0C4F0B2C0C5F01200E7
:10146600B1C0C8F0B2C0C9F01200B1C0CAF0B2C073
:10147600CBF01200B1C0C6F0B2C0C7F01200026EC7
:1014860002500EEC0AF012008C8A1200D09E120056
:02149600120042
:020000040020DA
:08000000FFFFFFFFFFFFFFFF00
:020000040030CA
:0E000000FF281F3CFFBF85FF0FC00FE00F4021
:00000001FF
