:020000040000FA
:04000000FEEF3FF0E0
:107E48000B6A000EF86E00015CEF3FF060001CF05A
:107E580001F0600020F002F0120060001CF005F054
:107E6800600020F006F0120060001CF003F06000D3
:107E780020F004F01200076E3901A3A9FDD76000B5
:107E88001FF0EAFD12006DEC3FF0B3EC3FF050EC50
:107E98003FF07FEC3FF01200700E3901D96F000EF1
:107EA800DB6F000EDD6F020EDF6F000EDE6F12005B
:107EB80047EC3FF0000E0A6E0A503FEC3FF00A2AEA
:107EC800210E096E760EE82EFED7092EFCD700D0BB
:107ED800F3D7000E3901C06F000EC16F000EC26FDC
:107EE800000EC36F000EC46F000EC56F000EC66F84
:107EF800000EC76F1200000E3D01EC6F000EED6F13
:107F0800000EEE6F000EEF6F000EF06F000EF16FB7
:107F1800B00EF26F800EF36F000EF46F190EF56F4E
:107F2800000EF66F000EF76F000EF86F000EF96F77
:107F3800000EFA6F000E076E000E086E31EC3FF06F
:107F4800000E076E000E086E38EC3FF0000E076E4C
:107F5800000E086E2AEC3FF0000E0B6E1200000EA9
:107F6800BE6E000EBD6E000EBA6E000EBB6E000E29
:107F7800BC6E070EC66EC268C368BF0EC46EFB0E29
:107F8800C56E3A0170697F0E606F5069070E806F89
:107F98004069000E716F000E816F000E516F000E68
:107FA800416F000E616F000E5A6F000E5B6F000E7E
:107FB8006A6F000E6B6F000E7A6F000E7B6F000EFB
:107FC800826F000E426F000E526F000E626F000E3D
:107FD800726F4369536963697369070E836F4469F4
:107FE8005469646974690F0E846F130E166F170E47
:087FF800E56F120024EF3FF0D9
:020000040020DA
:10000000FF0FFF0FFF0FFF0FFF0FFF0FFF0FFF0F80
:020000040030CA
:0A000000FCFFF7FF9FFFFFFFFFFF6B
:00000001FF
