:020000040000FA
:0400000082EF3FF05C
:107EE60007C001F008C002F0120007C005F008C084
:107EF60006F0120007C003F008C004F012000A6A78
:107F0600000EF86E0001A1EF3FF0300ED36E040EA6
:107F1600D26E000E9B6E1200E0EC3FF088EC3FF054
:107F2600C1EC3FF01200076EA4A89CEF3FF09EEF55
:107F36003FF097EF3FF007C073FF12008FEC3FF062
:107F4600ADEC3FF0096E095096EC3FF0A3EF3FF021
:107F560000EF00F0A4AAB2EF3FF0B4EF3FF0ADEFB0
:107F66003FF0000E0A6E71A2BBEF3FF0BDEF3FF08F
:107F7600BFEF3FF07198718874501200080E706E52
:107F8600900E716E240E726E0C0E756E000E766E6D
:107F9600000E076E000E086E78EC3FF0000E076EBE
:107FA600000E086E7DEC3FF0000E076E000E086EA8
:107FB60073EC3FF0000E0A6E1200000E8D6E000E7E
:107FC6008C6E000E896E000E8A6E000E8B6E070E8A
:107FD600966E926893689468BF0E956E3F0E0F0179
:107FE6003B6FFC0E3A6F3F0E396F070E3C6F2F0E3C
:0A7FF600386F000E616EF18E12006C
:020000040020DA
:08000000FFFFFFFFFFFFFFFF00
:020000040030CA
:0E000000FF281F3CFFBF85FF0FC00FE00F4021
:00000001FF
