:020000040000FA
:0400000088EF3FF056
:107EF20007C001F008C002F0120007C005F008C078
:107F020006F0120007C003F008C004F01200096A6C
:107F1200000EF86E0001B4EF3FF0300ED36E040E87
:107F2200D26E000E9B6E1200DEEC3FF08EEC3FF044
:107F3200A9EC3FF0BFEC3FF01200076EA4A8A4EF3B
:107F42003FF0A6EF3FF09FEF3FF007C073FF120034
:107F5200010EC26E000EC16E0D0EC06E000EC36E1B
:107F6200000EC46E120095EC3FF0BFEC3FF0610EC4
:107F72009EEC3FF0B8EF3FF000EF00F0080E706E9D
:107F8200900E716E240E726E060E756E000E766E77
:107F9200000E076E000E086E7EEC3FF0000E076EBC
:107FA200000E086E83EC3FF0000E076E000E086EA6
:107FB20079EC3FF0000E096E1200000E8D6E000E7D
:107FC2008C6E000E896E000E8A6E000E8B6E070E8E
:107FD200966EBF0E926E9368000E946E800E956E32
:107FE2003F0E0F013B6FFC0E3A6F3F0E396F070ECB
:0E7FF2003C6F2F0E386F000E616EF18E120084
:020000040020DA
:08000000FFFFFFFFFFFFFFFF00
:020000040030CA
:0E000000FF281F3CFFBF85FF0FC00FE00F4021
:00000001FF
