:020000040000FA
:040000004DEF3EF092
:107C360001C024F002C025F0120001C028F002C0E5
:107C460029F0120001C026F002C027F01200300E03
:107C5600D36E040ED26E000E9B6E120077EC3EF0D1
:107C66002AEC3EF058EC3EF0120072B23DEF3EF0C8
:107C760040EF3EF0010E41EF3EF0000E1200016EA5
:107C8600A4A848EF3EF04AEF3EF043EF3EF001C0B5
:107C960073FF120000EE15F00F0EEE6AE806FDE126
:107CA600000EF86E00010FEF3FF0080E706E900E9A
:107CB600716E240E726E0C0E756E000E766E000ED0
:107CC600016E000E026E20EC3EF0000E016E000EFC
:107CD600026E25EC3EF0000E016E000E026E1BECED
:107CE6003EF0000E156E1200000E8D6E000E8C6EAC
:107CF600000E896E000E8A6E000E8B6E070E966E53
:107D0600926893689468BB0E956E3B0E0F013B6FAD
:107D1600FC0E3A6F3F0E396F070E3C6F2F0E386F11
:107D2600000E616EF18E1200000E036E000E026EE2
:107D3600000E42EC3EF0024A032A03BEACEF3EF0D0
:107D4600035009E1050E025CD8A0ACEF3EF0AEEFA1
:107D56003EF09BEF3EF038EC3EF00009D8B4B6EFAB
:107D66003EF0B8EF3EF0AEEF3EF01200000E036EAE
:107D7600000E026E160E0224D96E000E0320DA6E75
:107D8600DF5042EC3EF0024A032A03BED4EF3EF037
:107D9600035009E10E0E025CD8A0D4EF3EF0D6EFF8
:107DA6003EF0BDEF3EF038EC3EF00009D8B4DEEF11
:107DB6003EF0E0EF3EF0D6EF3EF01200160E016EFA
:107DC600000E026E000E046E010E036E000E066EAD
:107DD6000E0E056E45EC3FF0000E116E000E106E95
:107DE600FFEF3EF0160E1024D96E000E1120DA6E4B
:107DF600020EDF6E104A112A0D50105C1150800AD7
:107E06000F6E0E50800A0F58D8A00CEF3FF00EEF01
:107E16003FF0F5EF3EF0120031EC3EF0000E146E2E
:107E260097EC3EF014C00DF00E6AE1EC3EF0B9ECB2
:107E36003EF097EC3EF038EC3EF00009D8B426EF61
:107E46003FF028EF3FF01EEF3FF00E0E1418D8A4B7
:107E56002FEF3FF031EF3FF035EF3FF0000E146E9D
:107E660036EF3FF0142A020E136E450E126EAA0E5E
:107E7600E82EFED7122EFCD7132EFAD713EF3FF0BB
:107E860000EF00F001C00BF002C00CF00550061028
:107E9600D8A450EF3FF052EF3FF054EF3FF0FFEF22
:107EA6003FF00BC0D9FF0CC0DAFF03C0DFFF05505F
:107EB6000B24076E06500C20086EFF0E0724D96EA1
:107EC600FF0E0820DA6E03C0DFFF065007E1030E3F
:107ED600055CD8B071EF3FF073EF3FF075EF3FF000
:107EE600FFEF3FF020EE01F00B50D9260C50DA22BE
:107EF60003C0DFFF20EE02F00B50D9260C50DA2229
:107F060003C0DFFF05500B24076E06500C20086ED9
:107F1600FE0E0724D96EFF0E0820DA6E03C0DFFFBF
:107F260005500B24076E06500C20086EFD0E072424
:107F3600D96EFF0E0820DA6E03C0DFFF065007E198
:107F4600070E055CD8B0AAEF3FF0ACEF3FF0AEEFFE
:107F56003FF0FFEF3FF020EE03F00B50D9260C5018
:107F6600DA2203C0DFFF05500B24076E06500C20F3
:107F7600086EFC0E0724D96EFF0E0820DA6E03C0C9
:107F8600DFFF065007E1090E055CD8B0CDEF3FF0E4
:107F9600CFEF3FF0D1EF3FF0FFEF3FF00BC007F020
:107FA6000CC008F0071E081E074A082A030E07140D
:107FB600096E0A6A09500B260A500C220950055E02
:107FC6000A50065AFC0E0516FF0E0616F6EF3FF08F
:107FD6000BC0D9FF0CC0DAFF03C0DFFF0506D8A02F
:107FE60006060B4A0C2A05500610D8A4FDEF3FF0F2
:0A7FF600FFEF3FF0EBEF3FF0120049
:020000040020DA
:08000000FFFFFFFFFFFFFFFF00
:020000040030CA
:0E000000FF281F3CFFBF85FF0FC00FE00F4021
:00000001FF
