:020000040000FA
:04000000FBEF12F010
:10060000003C6C3636CF0750B98488083CABAA2A28
:10061000BEA3858832DA0FC93F83F9223F0000006C
:100620003F0000404B179ACC373F04B6BA9FAA2A26
:100630003D000000BFDB0FC940E4CB9640DB0F4913
:1006400040DB0FC93F00A0C0ACF0A1C0ADF0A2C01C
:10065000AEF0A3C0AFF0ACC0C2F0ADC0C3F0AEC04E
:10066000C4F0AFC0C5F0C2C0A4F0C3C0A5F0C4C000
:10067000A6F0C5C0A7F0200E44EF03F00001D8900B
:10068000A733A633A533A433E82E3EEF03F0A4C06E
:10069000BCF0A5C0BDF0C59FDB0EC25D0F0EC359F7
:1006A000490EC4593F0EC559D8B059EF03F05BEF5E
:1006B00003F084EF03F0800EC45D390EC559D8B045
:1006C00064EF03F066EF03F070EF03F0000EA06F2D
:1006D000000EA16F800EA26F3F0EA36FEDEF05F02D
:1006E000A0C051F0A1C052F0A2C053F0A3C054F07A
:1006F00091EC0FF051C0A0F052C0A1F053C0A2F095
:1007000054C0A3F0EDEF05F0D20EC25D530EC359F5
:100710007B0EC459400EC559D8B091EF03F093EF4A
:1007200003F05CEF04F0E40EC25DCB0EC359160E6D
:10073000C459400EC559D8A0A0EF03F0A2EF03F0B2
:10074000FFEF03F0BC51BD11D8A4A9EF03F0ABEF4C
:1007500003F0C7EF03F0A0C041F0A1C042F0A2C077
:1007600043F0A3C044F0DB0E456E0F0E466E490EFB
:10077000476EC00E486EEEEC05F041C0B0F042C0CE
:10078000B1F043C0B2F044C0B3F0E1EF03F0A0C059
:1007900041F0A1C042F0A2C043F0A3C044F0DB0E80
:1007A000456E0F0E466E490E476E400E486EEEECDB
:1007B00005F041C0B0F042C0B1F043C0B2F044C057
:1007C000B3F0B0C051F0B1C052F0B2C053F0B3C0FA
:1007D00054F091EC0FF051C078F052C079F053C052
:1007E0007AF054C07BF0C4EC12F078C0A0F079C06D
:1007F000A1F07AC0A2F07BC0A3F0EDEF05F0BC51F0
:10080000BD11D8B406EF04F008EF04F036EF04F0A1
:10081000A0C041F0A1C042F0A2C043F0A3C044F088
:10082000DB0E456E0F0E466EC90E476E3F0E486ECC
:10083000EEEC05F041C0B8F042C0B9F043C0BAF0E8
:1008400044C0BBF0B8C07CF0B9C07DF0BAC07EF047
:10085000BBC07FF078EC0EF07CC0A0F07DC0A1F0B2
:100860007EC0A2F07FC0A3F0EDEF05F0DB0E516E6D
:100870000F0E526EC90E536E3F0E546EA0C055F04F
:10088000A1C056F0A2C057F0A3C058F062EC12F01D
:1008900051C07CF052C07DF053C07EF054C07FF058
:1008A00078EC0EF07CC0A0F07DC0A1F07EC0A2F07C
:1008B0007FC0A3F0EDEF05F0D60EC25D310EC35937
:1008C000E20EC459400EC559D8B069EF04F06BEF81
:1008D00004F018EF05F0E00EC25DED0EC359AF0E47
:1008E000C459400EC559D8A078EF04F07AEF04F04F
:1008F000CDEF04F0BC51BD11D8A481EF04F083EF1B
:1009000004F09FEF04F0A0C041F0A1C042F0A2C0EB
:1009100043F0A3C044F0DB0E456E0F0E466EC90EC9
:10092000476EC00E486EEEEC05F041C0B4F042C018
:10093000B5F043C0B6F044C0B7F0B9EF04F0A0C0C2
:1009400041F0A1C042F0A2C043F0A3C044F0DB0ECE
:10095000456E0F0E466EC90E476E400E486EEEECA9
:1009600005F041C0B4F042C0B5F043C0B6F044C099
:10097000B7F0B4C051F0B5C052F0B6C053F0B7C034
:1009800054F091EC0FF051C0A0F052C0A1F053C050
:10099000A2F054C0A3F0EDEF05F0BC51BD11D8B4E6
:1009A000D4EF04F0D6EF04F0FCEF04F0E40E516E47
:1009B000CB0E526E960E536EC00E546EA0C055F004
:1009C000A1C056F0A2C057F0A3C058F062EC12F0DC
:1009D00051C07CF052C07DF053C07EF054C07FF017
:1009E00078EC0EF07CC0A0F07DC0A1F07EC0A2F03B
:1009F0007FC0A3F0EDEF05F0A0C041F0A1C042F030
:100A0000A2C043F0A3C044F0E40E456ECB0E466E88
:100A1000960E476EC00E486EEEEC05F041C0B8F081
:100A200042C0B9F043C0BAF044C0BBF022EF04F0BA
:100A3000800EC45D7F0EC559D8A021EF05F023EFCD
:100A400005F03FEF05F0A0C051F0A1C052F0A2C0E8
:100A500053F0A3C054F0A0C055F0A1C056F0A2C0FE
:100A600057F0A3C058F062EC12F051C0A0F052C091
:100A7000A1F053C0A2F054C0A3F0EDEF05F0A0C068
:100A80007CF0A1C07DF0A2C07EF0A3C07FF0BE0EBE
:100A9000806F000E816F4EEC08F000017CC0A8F062
:100AA0007DC0A9F0000EA9BFFF0EAA6FAB6FBDEF0E
:100AB00005F0BEC051F0BFC052F0C0C053F0C1C07D
:100AC00054F091EC0FF051C0A0F052C0A1F053C00F
:100AD000A2F054C0A3F0EDEF05F0BEC078F0BFC0A7
:100AE00079F0C0C07AF0C1C07BF0C4EC12F078C0DD
:100AF0007CF079C07DF07AC07EF07BC07FF078EC2E
:100B00000EF07CC0A0F07DC0A1F07EC0A2F07FC03E
:100B1000A3F0EDEF05F0BEC051F0BFC052F0C0C071
:100B200053F0C1C054F091EC0FF051C078F052C0B6
:100B300079F053C07AF054C07BF0C4EC12F078C066
:100B4000A0F079C0A1F07AC0A2F07BC0A3F0EDEFD5
:100B500005F0BEC07CF0BFC07DF0C0C07EF0C1C05B
:100B60007FF078EC0EF07CC0A0F07DC0A1F07EC0DC
:100B7000A2F07FC0A3F0EDEF05F0030EA815A46F5F
:100B8000000EA915A56F000EAA15A66F000EAB15D5
:100B9000A76FA751000AD8B4E6EF05F0A9EF05F05A
:100BA000A551000AD8B4D7EF05F0A9EF05F0A4517C
:100BB000000AD8B459EF05F0010AD8B46DEF05F07A
:100BC000030AD8B48BEF05F0A9EF05F0A651000A8F
:100BD000D8B4D0EF05F0A9EF05F012004450800B17
:100BE0004D6E445044244F6E43AEF9EF05F0FBEFD9
:100BF00005F0FCEF05F04F804F50D8B402EF06F03F
:100C000004EF06F019EF06F04F28D8A40AEF06F01B
:100C10000CEF06F014EF06F0000E416E000E426E6F
:100C2000000E436E000E446E438E000E446E21EFA4
:100C300006F0000E416E000E426E000E436E000E76
:100C4000446E4850800B4E6E4D504E18D8B42BEF6A
:100C500006F02DEF06F02EEF06F04D8C485048249C
:100C60004E6E47AE36EF06F038EF06F039EF06F07D
:100C70004E804E50D8B43FEF06F041EF06F056EFED
:100C800006F04E28D8A447EF06F049EF06F051EFE2
:100C900006F0000E456E000E466E000E476E000E0A
:100CA000486E478E000E486E5EEF06F0000E456EF1
:100CB000000E466E000E476E000E486E4F504E5CA2
:100CC000D8B065EF06F067EF06F08EEF06F04DAC9A
:100CD0006CEF06F06EEF06F070EF06F0800E4D1A26
:100CE0004FC050F04EC04FF050C04EF041C050F0D9
:100CF00045C041F050C045F042C050F046C042F0FF
:100D000050C046F043C050F047C043F050C047F0D9
:100D100044C050F048C044F050C048F0000E506E3F
:100D20004F504EC049F04A6A495E000E4A5A4ABEC8
:100D3000A3EF06F04A5009E11A0E495CD8A0A3EFD0
:100D400006F0A5EF06F0DCEF06F04150421043102C
:100D50004410D8A4AEEF06F0B1EF06F0010EB2EFEA
:100D600006F0000E506E000E416E000E426E000E38
:100D7000436E000E446E4EC04FF0E5EF06F050A0FB
:100D8000C4EF06F0C6EF06F0CCEF06F0D890503076
:100D90000109506ECEEF06F0D890503241A0D3EF4B
:100DA00006F0D5EF06F0D6EF06F0508E443444320C
:100DB0004332423241324F2A4E504F5CD8A0E3EFCB
:100DC00006F0E5EF06F0BFEF06F04DBCEAEF06F0E7
:100DD000ECEF06F02CEF07F04F50D8A4F2EF06F03E
:100DE000F4EF06F0FEEF06F0000E416E000E426ECC
:100DF000000E436E000E446E4DEF08F04550412644
:100E000046504222475043224850442244A00BEF10
:100E100007F00DEF07F0B9EF07F050A012EF07F061
:100E200014EF07F01AEF07F0D89050300109506E18
:100E30001CEF07F0D890503241A021EF07F023EFCC
:100E400007F024EF07F0508E4434443243324232EC
:100E500041324F2AB9EF07F04550415C46504258A5
:100E6000475043584450800A496E4850800A4958B8
:100E7000D8B03DEF07F03FEF07F06AEF07F04150C1
:100E8000455C496E425046584A6E435047584B6E37
:100E9000445048584C6EFF0E4924416EFF0E4A20C4
:100EA000426EFF0E4B20436EFF0E4C20446E800EB0
:100EB0004D1A506C5050D8A460EF07F062EF07F065
:100EC00072EF07F0010E4126000E42224322442217
:100ED00072EF07F04550415E4650425A4750435A20
:100EE0004850445A4150421043104410D8A47BEF5C
:100EF00007F07DEF07F0B2EF07F05050D8A483EF72
:100F000007F085EF07F0B2EF07F0000E416E000E1C
:100F1000426E000E436E000E446E4DEF08F0D89006
:100F2000413642364336443650AE99EF07F09BEFD8
:100F300007F09CEF07F0418050A0A1EF07F0A3EF6E
:100F400007F0A7EF07F0D8805036A9EF07F0D89048
:100F500050364F50D8B4AFEF07F0B1EF07F0B2EF13
:100F600007F04F0643AEB7EF07F0B9EF07F08FEF8A
:100F700007F0000E4E6E50AEC0EF07F0C2EF07F064
:100F8000DAEF07F050C049F07F0E4916D8B4CBEF26
:100F900007F0CDEF07F0D1EF07F0010E4E6EDAEF5C
:100FA00007F041A0D6EF07F0D8EF07F0DAEF07F02F
:100FB000CDEF07F04E50D8B4E0EF07F0E2EF07F0C6
:100FC0000DEF08F0010E4126000E4222432244227A
:100FD00044A0EDEF07F0EFEF07F00DEF08F041C090
:100FE00049F042C04AF043C04BF044C04CF04C348E
:100FF0004C324B324A32493249C041F04AC042F089
:101000004BC043F04CC044F04F28D8B40AEF08F06E
:101010000CEF08F00DEF08F04F2A4F28D8B413EF6B
:1010200008F015EF08F01DEF08F04F50D8A41BEFA3
:1010300008F01DEF08F02FEF08F0000E416E000ED3
:10104000426E000E436E000E446E4F50D8A42BEF3C
:1010500008F02DEF08F02FEF08F0000E4D6E4FA0B6
:1010600034EF08F036EF08F039EF08F0438E3AEF2E
:1010700008F0439ED8904F30446E4DAE42EF08F0DA
:1010800044EF08F045EF08F0448E41C041F042C003
:1010900042F043C043F044C044F01200D3C08CF08F
:1010A000D4C08DF0D5C08EF0D6C08FF07CC08CF04F
:1010B0007DC08DF07EC08EF07FC08FF08CC05BF065
:1010C0008DC05CF08EC05DF08FC05EF0200E6EEFC4
:1010D00008F0D8905E325D325C325B32E82E69EF08
:1010E00008F05BC08AF05CC08BF0FF0E00018C152D
:1010F000866FFF0E8D15876FFF0E8E15886F7F0E22
:101100008F15896F800E885D7F0E8959D8A08BEF6F
:1011100008F08DEF08F0B2EF08F07CC051F07DC010
:1011200052F07EC053F07FC054F07CC055F07DC0BB
:1011300056F07EC057F07FC058F062EC12F080C0CD
:10114000D9FF81C0DAFF51C0DEFF52C0DEFF53C0BD
:10115000DEFF54C0DEFF000E00017D6F000E7C6FCD
:1011600095EF0AF0DB0E865D0F0E8759C90E885980
:101170004D0E8959D8B0BFEF08F0C1EF08F0B1EFBC
:1011800009F07CC001F07DC002F07EC003F07FC09A
:1011900004F0E1EC12F001C098F002C099F003C035
:1011A0009AF004C09BF0000E456E000E466E000ED5
:1011B000476E3F0E486E830E2C6EF90E2D6E220E7A
:1011C0002E6E3F0E2F6E98C028F099C029F09AC05D
:1011D0002AF09BC02BF096EC0AF028C041F029C001
:1011E00042F02AC043F02BC044F0EEEC05F041C0C1
:1011F00051F042C052F043C053F044C054F06AEC86
:1012000011F051C09CF052C09DF053C09EF054C0EC
:101210009FF09CC001F09DC002F09EC003F09FC0F3
:1012200004F0010E90EC10F001C094F002C095F0B3
:1012300003C096F004C097F0DA0E2C6E0F0E2D6EE0
:10124000C90E2E6E3F0E2F6E94C028F095C029F067
:1012500096C02AF097C02BF096EC0AF028C055F003
:1012600029C056F02AC057F02BC058F098C051F052
:1012700099C052F09AC053F09BC054F062EC12F047
:1012800051C090F052C091F053C092F054C093F00E
:1012900090C051F091C052F092C053F093C054F0FE
:1012A000A30E2C6E850E2D6E880E2E6E320E2F6EB6
:1012B00094C028F095C029F096C02AF097C02BF072
:1012C00096EC0AF028C055F029C056F02AC057F015
:1012D0002BC058F062EC12F080C0D9FF81C0DAFF59
:1012E00051C0DEFF52C0DEFF53C0DEFF54C0DEFF40
:1012F00000018A518B11D8B480EF09F082EF09F018
:10130000ABEF09F080C0D9FF81C0DAFFDECF78F003
:10131000DECF79F0DECF7AF0DECF7BF0C4EC12F0D6
:1013200080C0D9FF81C0DAFF000178C0DEFF79C03C
:10133000DEFF7AC0DEFF7BC0DEFF9CC05BF09DC09D
:101340005CF05B1E5C1E5B4A5C2A5BC07CF05CC090
:101350007DF095EF0AF09CC07CF09DC07DF095EF8C
:101360000AF07CC001F07DC002F07EC003F07FC0B7
:1013700004F0E1EC12F001C098F002C099F003C053
:101380009AF004C09BF0000E456E000E466E000EF3
:10139000476E3F0E486E830E2C6EF90E2D6E220E98
:1013A0002E6E3F0E2F6E98C028F099C029F09AC07B
:1013B0002AF09BC02BF096EC0AF028C041F029C01F
:1013C00042F02AC043F02BC044F0EEEC05F041C0DF
:1013D00051F042C052F043C053F044C054F06AECA4
:1013E00011F051C09CF052C09DF053C09EF054C00B
:1013F0009FF09CC001F09DC002F09EC003F09FC012
:1014000004F0010E90EC10F001C094F002C095F0D1
:1014100003C096F004C097F0DA0E2C6E0F0E2D6EFE
:10142000C90E2E6E3F0E2F6E94C028F095C029F085
:1014300096C02AF097C02BF096EC0AF028C055F021
:1014400029C056F02AC057F02BC058F098C051F070
:1014500099C052F09AC053F09BC054F062EC12F065
:1014600051C090F052C091F053C092F054C093F02C
:1014700090C051F091C052F092C053F093C054F01C
:10148000A30E2C6E850E2D6E880E2E6E320E2F6ED4
:1014900094C028F095C029F096C02AF097C02BF090
:1014A00096EC0AF028C055F029C056F02AC057F033
:1014B0002BC058F062EC12F051C082F052C083F0A1
:1014C00053C084F054C085F000018A518B11D8B408
:1014D0006CEF0AF06EEF0AF087EF0AF082C078F046
:1014E00083C079F084C07AF085C07BF0C4EC12F040
:1014F00080C0D9FF81C0DAFF000178C0DEFF79C06B
:10150000DEFF7AC0DEFF7BC0DEFF9DEF09F080C00A
:10151000D9FF81C0DAFF82C0DEFF83C0DEFF84C056
:10152000DEFF85C0DEFFABEF09F012002B50800B11
:10153000346E2B502B243A6E2AAEA1EF0AF0A3EFA3
:101540000AF0A4EF0AF03A803A50D8B4AAEF0AF0B1
:10155000ACEF0AF0BFEF0AF03A28D8A4B2EF0AF0D5
:10156000B4EF0AF0BCEF0AF0000E286E000E296EF0
:10157000000E2A6E000E2B6E2A8EC7EF0AF0000EA8
:10158000286E000E296E000E2A6E000E2B6E2F5054
:10159000800B341A2F502F24396E2EAED2EF0AF062
:1015A000D4EF0AF0D5EF0AF039803950D8B4DBEF28
:1015B0000AF0DDEF0AF0F0EF0AF03928D8A4E3EFE3
:1015C0000AF0E5EF0AF0EDEF0AF0000E2C6E000EC7
:1015D0002D6E000E2E6E000E2F6E2E8EF8EF0AF07E
:1015E000000E2C6E000E2D6E000E2E6E000E2F6E55
:1015F0003950D8B4FEEF0AF000EF0BF008EF0BF013
:101600003A50D8A406EF0BF008EF0BF012EF0BF0F6
:10161000000E286E000E296E000E2A6E000E2B6E34
:10162000AAEF0CF02E502802F3CF3FF0F4CF40F099
:101630003F50356E366A376A386A40503B6E3C6AB6
:101640003D6A3E6A2D502902F3CF3FF0F4CF40F0BF
:101650003F503526000E36223722382240503B2696
:10166000000E3C223D223E222C502A02F3CF3FF0B6
:10167000F4CF40F03F503526000E36223722382274
:1016800040503B26000E3C223D223E2237C038F01F
:1016900036C037F035C036F0356A2C502902F3CF0A
:1016A0003FF0F4CF40F03F50352640503622000E38
:1016B0003722000E38222D502802F3CF3FF0F4CF0E
:1016C00040F03F50352640503622000E3722000EA3
:1016D000382237C038F036C037F035C036F0356ABA
:1016E0002C502802F3CF3FF0F4CF40F03F50352686
:1016F00040503622000E3722000E38222E5029028A
:10170000F3CF3FF0F4CF40F03F503B2640503C2217
:10171000000E3D22000E3E222D502A02F3CF3FF054
:10172000F4CF40F03F503B2640503C22000E3D227B
:10173000000E3E222E502A02F3CF3FF0F4CF40F0AD
:101740003F50306E4050316E326A336A32C033F0EF
:1017500031C032F030C031F0306A30503B26315069
:101760003C2232503D2233503E2235C030F036C04C
:1017700031F037C032F038C033F0190EC5EF0BF03E
:10178000D8903332323231323032E82EC0EF0BF0A3
:1017900030503B2631503C2232503D2233503E22C5
:1017A00037C038F036C037F035C036F0356A3950BA
:1017B0003AC030F0316A3026000E3122820E3024D9
:1017C0003F6EFF0E3120406EFBEF0BF0D8903B36A2
:1017D0003C363D363E3638AEF0EF0BF0F2EF0BF014
:1017E000F3EF0BF03B80D890353636363736383647
:1017F0003F06D8A040063DAE00EF0CF002EF0CF023
:10180000E6EF0BF0000E396E38AE09EF0CF00BEF7F
:101810000CF02FEF0CF0FF0E3514306EFF0E361467
:10182000316EFF0E3714326E7F0E3814336E305027
:10183000311032103310D8B420EF0CF022EF0CF03E
:1018400026EF0CF0010E396E2FEF0CF03BA02BEFC2
:101850000CF02DEF0CF02FEF0CF022EF0CF03950C4
:10186000D8B435EF0CF037EF0CF05BEF0CF0010E55
:101870003B26000E3C223D223E223EA042EF0CF0D1
:1018800044EF0CF05BEF0CF03BC030F03CC031F0AB
:101890003DC032F03EC033F0333433323232313275
:1018A000303230C03BF031C03CF032C03DF033C08C
:1018B0003EF03F4A402A40BE66EF0CF0405008E13F
:1018C0003F28D8A066EF0CF068EF0CF072EF0CF038
:1018D000000E3B6E000E3C6E800E3D6E7F0E3E6E27
:1018E000A0EF0CF040BE7FEF0CF0405006E13F044B
:1018F000D8B07DEF0CF07FEF0CF08BEF0CF0000E0A
:101900003B6E000E3C6E000E3D6E000E3E6E000EF5
:10191000346EA0EF0CF03FC03AF0FF0E3B16FF0E06
:101920003C167F0E3D16000E3E163AA09AEF0CF0C4
:101930009CEF0CF09DEF0CF03D8ED8903A303E6E4F
:1019400034503E123BC028F03CC029F03DC02AF084
:101950003EC02BF012001250800B1F6E125012244A
:10196000266E11AEB6EF0CF0B8EF0CF0B9EF0CF03C
:1019700026802650D8B4BFEF0CF0C1EF0CF0D6EFA4
:101980000CF02628D8A4C7EF0CF0C9EF0CF0D1EF6B
:101990000CF0000E0F6E000E106E000E116E000E99
:1019A000126E118E000E126EDEEF0CF0000E0F6E36
:1019B000000E106E000E116E000E126E1650800B8F
:1019C0001F1A16501624276E15AEE9EF0CF0EBEF38
:1019D0000CF0ECEF0CF027802750D8B4F2EF0CF0AD
:1019E000F4EF0CF009EF0DF02728D8A4FAEF0CF073
:1019F000FCEF0CF004EF0DF0000E136E000E146EF1
:101A0000000E156E000E166E158E000E166E11EF7E
:101A10000DF0000E136E000E146E000E156E000E0B
:101A2000166E1350141015101610D8A41AEF0DF0DE
:101A30001CEF0DF034EF0DF0000E0F6E000E106E67
:101A4000000E116E000E126E800E11127F0E121219
:101A50001F5012120FC00FF010C010F011C011F083
:101A600012C012F077EF0EF02650D8A43AEF0DF026
:101A70003CEF0DF046EF0DF0000E0F6E000E106EF5
:101A8000000E116E000E126E77EF0EF0275026C07A
:101A900017F0186A175E000E185A7F0E1724206E72
:101AA000000E1820216E0FC01BF010C01CF011C0DA
:101AB0001DF012C01EF0000E0F6E000E106E000E14
:101AC000116E000E126E000E226E000E236E000EBE
:101AD000246E000E256E000E276EA7EF0DF0275026
:101AE000D8B475EF0DF077EF0DF08EEF0DF0D890C4
:101AF0001B361C361D361E36D8900F361036113662
:101B0000123625AE86EF0DF088EF0DF089EF0DF05F
:101B10000F80D890223623362436253613501B5C8E
:101B200014501C5815501D5816501E58D8A09BEF25
:101B30000DF09DEF0DF0A6EF0DF0258C13501B5E00
:101B400014501C5A15501D5A16501E5A272A190E89
:101B50002764ADEF0DF0AFEF0DF06FEF0DF01B5000
:101B60001C101D101E10D8B4B8EF0DF0BAEF0DF018
:101B7000D2EF0DF02280D2EF0DF0D8900F36103654
:101B80001136123625AEC7EF0DF0C9EF0DF0CAEFD2
:101B90000DF00F80D89022362336243625362006C5
:101BA000D8A0210611AED7EF0DF0D9EF0DF0BDEFA3
:101BB0000DF0000E276E25AEE0EF0DF0E2EF0DF018
:101BC00006EF0EF0FF0E2214176EFF0E2314186E90
:101BD000FF0E2414196E7F0E25141A6E175018105C
:101BE00019101A10D8B4F7EF0DF0F9EF0DF0FDEF62
:101BF0000DF0010E276E06EF0EF00FA002EF0EF0B3
:101C000004EF0EF006EF0EF0F9EF0DF02750D8B408
:101C10000CEF0EF00EEF0EF032EF0EF0010E0F266D
:101C2000000E10221122122212A019EF0EF01BEF4B
:101C30000EF032EF0EF00FC017F010C018F011C008
:101C400019F012C01AF01A341A3219321832173237
:101C500017C00FF018C010F019C011F01AC012F020
:101C6000204A212A21BE3DEF0EF0215008E1202814
:101C7000D8A03DEF0EF03FEF0EF04AEF0EF0000E51
:101C8000216E2068000E0F6E000E106E000E116E99
:101C9000000E126E21BE57EF0EF0215006E1200417
:101CA000D8B055EF0EF057EF0EF065EF0EF0000EC6
:101CB000216E000E206E000E0F6E000E106E000ED4
:101CC000116E000E126E000E1F6E20C026F026A0B0
:101CD0006CEF0EF06EEF0EF071EF0EF0118E72EFF2
:101CE0000EF0119ED8902630126E28EF0DF01200E3
:101CF0007CC028F07DC029F07EC02AF07FC02BF088
:101D00007CC02CF07DC02DF07EC02EF07FC02FF067
:101D100096EC0AF028C098F029C099F02AC09AF0F1
:101D20002BC09BF098C028F099C029F09AC02AF0E7
:101D30009BC02BF098C02CF099C02DF09AC02EF0CB
:101D40009BC02FF096EC0AF028C084F029C085F0E3
:101D50002AC086F02BC087F03C0E2C6E6C0E2D6EC8
:101D6000360E2E6E360E2F6E98C028F099C029F0D0
:101D70009AC02AF09BC02BF096EC0AF028C041F0E4
:101D800029C042F02AC043F02BC044F0CF0E456E6C
:101D9000070E466E500E476EB90E486EEEEC05F01B
:101DA00041C080F042C081F043C082F044C083F063
:101DB00098C028F099C029F09AC02AF09BC02BF057
:101DC0007CC02CF07DC02DF07EC02EF07FC02FF0A7
:101DD00096EC0AF028C094F029C095F02AC096F03D
:101DE0002BC097F0AB0E456EAA0E466E2A0E476EBC
:101DF000BE0E486E840E2C6E880E2D6E080E2E6E52
:101E00003C0E2F6E98C028F099C029F09AC02AF095
:101E10009BC02BF096EC0AF028C041F029C042F09C
:101E20002AC043F02BC044F0EEEC05F041C088F02E
:101E300042C089F043C08AF044C08BF084C02CF0CB
:101E400085C02DF086C02EF087C02FF094C028F0FA
:101E500095C029F096C02AF097C02BF096EC0AF0B6
:101E600028C08CF029C08DF02AC08EF02BC08FF0D6
:101E70007CC045F07DC046F07EC047F07FC048F092
:101E800094C02CF095C02DF096C02EF097C02FF086
:101E900088C028F089C029F08AC02AF08BC02BF0B6
:101EA00096EC0AF028C041F029C042F02AC043F065
:101EB0002BC044F0EEEC05F041C090F042C091F030
:101EC00043C092F044C093F090C041F091C042F002
:101ED00092C043F093C044F080C02CF081C02DF03C
:101EE00082C02EF083C02FF08CC028F08DC029F066
:101EF0008EC02AF08FC02BF096EC0AF028C045F077
:101F000029C046F02AC047F02BC048F0EEEC05F09F
:101F100041C07CF042C07DF043C07EF044C07FF001
:101F2000120051C028F052C029F053C02AF054C00A
:101F30002BF051C02CF052C02DF053C02EF054C0E5
:101F40002FF096EC0AF028C074F029C075F02AC072
:101F500076F02BC077F074C028F075C029F076C0F9
:101F60002AF077C02BF074C02CF075C02DF076C02D
:101F70002EF077C02FF096EC0AF028C070F029C040
:101F800071F02AC072F02BC073F0170E2C6E9A0EEF
:101F90002D6ECC0E2E6E370E2F6E74C028F075C0CD
:101FA00029F076C02AF077C02BF096EC0AF028C012
:101FB00041F029C042F02AC043F02BC044F03F0E4C
:101FC000456E040E466EB60E476EBA0E486EEEECC7
:101FD00005F041C060F042C061F043C062F044C00F
:101FE00063F0000E456E000E466E800E476E3F0E8B
:101FF000486E000E2C6E000E2D6E000E2E6EBF0E63
:102000002F6E74C028F075C029F076C02AF077C012
:102010002BF096EC0AF028C041F029C042F02AC00B
:1020200043F02BC044F0EEEC05F041C064F042C038
:1020300065F043C066F044C067F074C02CF075C012
:102040002DF076C02EF077C02FF070C028F071C050
:1020500029F072C02AF073C02BF096EC0AF028C069
:1020600068F029C069F02AC06AF02BC06BF09F0E9F
:102070002C6EAA0E2D6E2A0E2E6E3D0E2F6E70C087
:1020800028F071C029F072C02AF073C02BF096ECD2
:102090000AF028C045F029C046F02AC047F02BC0FE
:1020A00048F064C041F065C042F066C043F067C0CC
:1020B00044F0EEEC05F041C06CF042C06DF043C05E
:1020C0006EF044C06FF06CC041F06DC042F06EC065
:1020D00043F06FC044F060C02CF061C02DF062C0CE
:1020E0002EF063C02FF068C028F069C029F06AC0E4
:1020F0002AF06BC02BF096EC0AF028C045F029C0FE
:1021000046F02AC047F02BC048F0EEEC05F041C085
:1021100051F042C052F043C053F044C054F012009A
:10212000096E0950D8B497EF10F099EF10F0BBEF9B
:1021300010F004BEA0EF10F09EEF10F0BBEF10F017
:1021400001C005F002C006F003C007F004C008F0AB
:10215000051E061E071E081E052A000E062207225F
:10216000082205C00BF006C00CF007C00DF008C037
:102170000EF0C3EF10F001C00BF002C00CF003C072
:102180000DF004C00EF00150021003100410D8A48A
:10219000CCEF10F0CEEF10F0D8EF10F0000E016E83
:1021A000000E026E000E036E000E046E69EF11F059
:1021B000960E0A6EE2EF10F00A2AD8900E320D3217
:1021C0000C320B32000E0B14056E000E0C14066E52
:1021D000000E0D14076EFE0E0E14086E055006104C
:1021E00007100810D8A4F7EF10F0F9EF10F0DCEFAB
:1021F00010F007EF11F00A2A010E0B26000E0C2238
:102200000D220E22D8900E320D320C320B32000EFF
:102210000B14056E000E0C14066E000E0D14076EE6
:10222000FF0E0E14086E0550061007100810D8A4F3
:102230001CEF11F01EEF11F0FBEF10F026EF11F084
:102240000A06D8900B360C360D360E360DBE2BEF27
:1022500011F02DEF11F035EF11F0020E0A6033EF9F
:1022600011F035EF11F020EF11F00AB03AEF11F054
:102270003CEF11F03DEF11F00D9ED8900A320AC0EC
:1022800005F0066A076A086A05C008F0076A066A68
:10229000056A05500B1206500C1207500D1208501B
:1022A0000E120950D8B457EF11F059EF11F061EF49
:1022B00011F004BE60EF11F05EEF11F061EF11F06C
:1022C0000E8E0BC001F00CC002F00DC003F00EC06A
:1022D00004F01200533454345A6E5A50D8A473EF99
:1022E00011F075EF11F07FEF11F0000E516E000E3E
:1022F000526E000E536E000E546EECEF11F051C092
:1023000055F052C056F053C057F054C058F0200E4C
:102310008FEF11F0D8905832573256325532E82E9E
:102320008AEF11F05550596E538EFF0E5116FF0E65
:102330005216FF0E5316000E5416960E5A5E5ABED3
:10234000A6EF11F0A4EF11F0BCEF11F05A50800A83
:10235000970FD8B0AEEF11F0B0EF11F0B2EF11F06F
:1023600075EF11F0D89054325332523251325A3EF6
:10237000B2EF11F0D4EF11F01F0E5A64C2EF11F05A
:10238000C4EF11F0CCEF11F075EF11F0D890513689
:102390005236533654365A065A50D8A4D2EF11F05A
:1023A000D4EF11F0C6EF11F05950D8B4DAEF11F0B4
:1023B000DCEF11F0E4EF11F0541E531E521E516C6D
:1023C000000E52225322542251C051F052C052F0FA
:1023D00053C053F054C054F012001CEC13F0000E24
:1023E0000001CE6F000E136E000E146E200E156EDF
:1023F000410E166E0001CE51016E026A036A046A34
:10240000010E90EC10F001C00FF002C010F003C0FC
:1024100011F004C012F0ABEC0CF00FC0C6F010C00D
:10242000C7F011C0C8F012C0C9F0C6C0A0F0C7C044
:10243000A1F0C8C0A2F0C9C0A3F023EC03F0A0C073
:10244000CAF0A1C0CBF0A2C0CCF0A3C0CDF0000E6A
:102450002C6E000E2D6E480E2E6E430E2F6ECAC0CF
:1024600028F0CBC029F0CCC02AF0CDC02BF096ECE0
:102470000AF028C051F029C052F02AC053F02BC0F6
:1024800054F06AEC11F0515007EC13F00001CE2922
:10249000D8B44DEF12F04FEF12F052EF12F0CE2BF6
:1024A00054EF12F0010ECE6F12EC13F00009D8B405
:1024B0005CEF12F05EEF12F054EF12F0F2EF11F059
:1024C00000EF00F0000E551A000E561A000E571AB3
:1024D000800E581A51C041F052C042F053C043F030
:1024E00054C044F055C045F056C046F057C047F0C0
:1024F00058C048F0EEEC05F041C051F042C052F037
:1025000043C053F044C054F01200000E8D6E000E14
:102510008C6E000E896E000E8A6E000E8B6E070E9A
:10252000966E926893689468BB0E956E3B0E0F0191
:102530003B6FFC0E3A6F3F0E396F070E3C6F2F0E4C
:10254000386F000E616EF18E1200080E706E900EE4
:10255000716E240E726E0C0E756E000E766E000E8D
:10256000016E000E026E2FEC13F0000E016E000ED5
:10257000026E2AEC13F0000E016E000E026E34ECB7
:1025800013F0000E5F6E12000001785179117A117C
:102590007B11D8B4CEEF12F0D0EF12F0D8EF12F0DA
:1025A000000E781B000E791B000E7A1B800E7B1B21
:1025B00078C078F079C079F07AC07AF07BC07BF08F
:1025C0001200CFC005F0D0C006F0D1C007F0D2C0D5
:1025D00008F001C005F002C006F003C007F004C017
:1025E00008F0089E05C001F006C002F007C003F025
:1025F00008C004F0120000EECFF0080EEE6AE80604
:10260000FDE15F6A000EF86E0001EDEF11F0016E62
:10261000A4A80DEF13F00FEF13F008EF13F001C0B3
:1026200073FF120072B217EF13F01AEF13F0010EDE
:102630001BEF13F0000E120085EC12F023EC13F0E8
:10264000A5EC12F01200300ED36E040ED26E000E06
:102650009B6E120001C0D9F002C0DAF0120001C076
:10266000DBF002C0DCF0120001C0D7F002C0D8F0ED
:02267000120056
:020000040020DA
:08000000FFFFFFFFFFFFFFFF00
:020000040030CA
:0E000000FF281F3CFFBF85FF0FC00FE00F4021
:00000001FF
