:020000040000FA
:040000009DEF3FF041
:107F100007C001F008C002F0120007C005F008C059
:107F200006F0120007C003F008C004F01200076E4C
:107F30009EA8FED707C0ADFF12000B6A000EF86EB8
:107F40000001B1EF3FF0300ED36E040ED26E000E82
:107F50009B6E1200E1EC3FF0A3EC3FF0C2EC3FF06F
:107F60001200AAEC3FF0000E0A6E0A5097EC3FF0A8
:107F70000A2A0A0E096EBC0EE82EFED7092EFCD77F
:107F800000D0F3D7080EB86E900EAB6E240EAC6E18
:107F9000190EAF6E000EB06E000E076E000E086E6A
:107FA0008DEC3FF0000E076E000E086E92EC3FF075
:107FB000000E076E000E086E88EC3FF0000E0B6E90
:107FC0001200000E8D6E000E8C6E000E896E000E7B
:107FD0008A6E000E8B6E070E966E92689368BF0EC7
:107FE000946E95680F013B693C0E3A6F3F0E396FF6
:107FF000070E3C6F2F0E386F000E616EF18E12006F
:020000040020DA
:08000000FFFFFFFFFFFFFFFF00
:020000040030CA
:0E000000FF281F3CFFBF85FF0FC00FE00F4021
:00000001FF
